:020000040800F2
:1000000000000220ED4B00086D0E00086F0E000886
:10001000710E0008730E0008750E00080000000045
:10002000000000000000000000000000770E000843
:10003000790E0008000000007B0E00087D0E00080D
:100040003D4C00083D4C00083D4C00083D4C00086C
:100050003D4C00083D4C00083D4C00083D4C00085C
:100060003D4C00083D4C00083D4C00083D4C00084C
:100070003D4C00083D4C00083D4C00083D4C00083C
:100080003D4C00083D4C00083D4C00083D4C00082C
:100090003D4C00083D4C00083D4C00083D4C00081C
:1000A0003D4C00083D4C00083D4C00083D4C00080C
:1000B0003D4C00083D4C00083D4C00083D4C0008FC
:1000C0003D4C00083D4C00083D4C00083D4C0008EC
:1000D0003D4C00083D4C00083D4C00083D4C0008DC
:1000E0003D4C00083D4C00083D4C00083D4C0008CC
:1000F0003D4C00083D4C00083D4C00083D4C0008BC
:100100003D4C00083D4C00083D4C00083D4C0008AB
:100110003D4C00083D4C00083D4C00083D4C00089B
:10012000850E00083D4C00083D4C00083D4C000881
:100130003D4C00083D4C00083D4C00083D4C00087B
:100140003D4C00083D4C00083D4C0008950E000851
:100150003D4C00083D4C00083D4C00083D4C00085B
:100160003D4C00083D4C00083D4C00083D4C00084B
:100170003D4C00083D4C00083D4C000800000000CC
:080180003D4C00083D4C000855
:1001900010B5054C237833B9044B13B10448AFF3C1
:1001A00000800123237010BDE0010020000000004A
:1001B0003055000808B5034B1BB103490348AFF3A2
:1001C000008008BD00000000E40100203055000858
:1001D000034613F8012B002AFBD1181A0138704787
:1001E00001F0FF01102A2BDB10F0070F08D010F8E8
:1001F000013B013A8B422DD010F0070F42B3F6D1EC
:10020000F0B441EA012141EA014122F007047FF004
:1002100000070023F0E80256083C85EA010586EA5B
:10022000010685FA47F5A3FA87F586FA47F6A5FA97
:1002300087F68EB9EED1F0BC01F0FF0102F00702A3
:1002400032B110F8013B013A83EA010313B1F8D14E
:100250000020704701387047002D06BF354603382F
:10026000073815F0010F07D1013015F4807F02BF68
:10027000013015F4C03F0130F0BC0138704700BFB9
:1002800053B94AB9002908BF00281CBF4FF0FF31FD
:100290004FF0FF3000F074B9ADF1080C6DE904CEF9
:1002A00000F006F8DDF804E0DDE9022304B0704751
:1002B0002DE9F047089E04468846002B40F08580D3
:1002C0008A42154648D9B2FA82F24AB1C2F12007F1
:1002D00001FA02F320FA07F7954047EA0308944031
:1002E0004FEA154E230CB8FBFEF71FFA85FC0EFBF8
:1002F000178843EA084307FB0CF1994209D9EB1828
:1003000007F1FF3080F0E380994240F2E080023F45
:100310002B445B1AA4B2B3FBFEF00EFB103344EA8D
:10032000034400FB0CFCA44509D92C1900F1FF3350
:1003300080F0CB80A44540F2C88002382C4440EACB
:100340000740A4EB0C0400271EB1D4400023C6E9EB
:1003500000433946BDE8F087002A53D0B2FA82F252
:10036000002A40F0B680491B4FEA154E1FFA85F867
:100370000127B1FBFEFC230C0EFB1C1143EA0143D9
:1003800008FB0CF1994207D9EB180CF1FF3002D2AF
:10039000994200F2EC808446591AA3B2B1FBFEF0F8
:1003A0000EFB101443EA044408FB00F8A04507D9EB
:1003B0002C1900F1FF3302D2A04500F2DC80184670
:1003C000A4EB080440EA0C40BEE78B4208D9002E9B
:1003D00078D00027C6E9000138463946BDE8F087E5
:1003E000B3FA83F77FB98B4202D3824200F2BD8019
:1003F000841A61EB030301209846002EA9D0C6E9B8
:100400000048A6E7FFDEC7F12005BB4022FA05FC45
:100410004CEA030C01FA07F420FA05F821FA05F377
:100420004FEA1C4E48EA0404B3FBFEF9210C0EFB14
:1004300019331FFA8CF841EA034309FB08FA9A457D
:1004400002FA07F200FA07F10BD91CEB030309F1DA
:10045000FF3080F088809A4540F28580A9F102093A
:100460006344A3EB0A03A4B2B3FBFEF00EFB10330C
:1004700044EA034400FB08F8A04508D91CEB040437
:1004800000F1FF336BD2A04569D90238644440EAD9
:100490000940A4EB0804A0FB02894C45C6464B4624
:1004A00054D351D0002E69D0B1EB0E0264EB03049B
:1004B00004FA05F522FA07F3FC401D43C6E900548F
:1004C000002746E73746304643E7184637E70746F2
:1004D0001FE7C2F1200320FA03F7954001FA02F06A
:1004E00021FA03F34FEA154E3843010CB3FBFEF734
:1004F0001FFA85F80EFB173341EA034107FB08F3A7
:100500008B4204FA02F407D9691807F1FF3C28D29C
:100510008B4226D9023F2944CB1A81B2B3FBFEF0AD
:100520000EFB103341EA034100FB08F38B4207D96D
:10053000691800F1FF3C10D28B420ED902382944D1
:10054000C91A40EA074714E74145ABD2B8EB020E9F
:1005500069EB0C0201381346A4E76046F0E7184641
:1005600095E76746D8E781467BE7384645E7ACF133
:10057000020C2B4410E702382C4421E73746E8E60A
:10058000704700BFF0B4074600231D469C4618463E
:1005900006E000EB80046500303AA818012501331D
:1005A0008B4214DA1E46FA5C0C4C145D14F0040FF6
:1005B0000BD0002DEDD1002BEBD03E4416F8014CB2
:1005C0002D2CE6D14FF0010CE3E7002DE7D0BCF174
:1005D000000F00D04042F0BC704700BFC15500087A
:1005E0000388B3F57A7F07D24FF47A730380064B02
:1005F0001B6802885A637047B3F5FA6FF7D94FF456
:10060000FA630380F3E700BFF002002008B500F0B2
:10061000C7F903220849094802F0D0F84FF47A706C
:10062000FFF7DEFF4FF40041054803F065F9642051
:1006300003F036FCF6E700BF0C0200204802002061
:10064000000C024010B59AB00C460A4601466846B6
:1006500004F00AFC1AAB1C44002304F8683C68460A
:10066000FFF7B6FD01466846FFF78CFF80B20A4CE3
:1006700020802046FFF7B4FF2288322307490DA8C7
:1006800004F0D2FB0DA8FFF7A3FD81B20DA800F086
:10069000C3FB1AB010BD00BFFC0100204855000884
:1006A0007047000030B58BB0002405940694079481
:1006B0000894099401941E4B1A6B42F080021A634D
:1006C0001A6B02F080020192019A02941A6B42F0B6
:1006D00001021A631A6B02F001020292029A039459
:1006E0001A6B42F010021A631A6B02F010020392A6
:1006F000039A04941A6B42F008021A631B6B03F00E
:1007000008030493049B0B4D22464FF440412846B6
:1007100003F0ECF84FF4404305930123069307944C
:10072000089405A9284602F0FDFF0BB030BD00BFBC
:1007300000380240000C024000B583B00021019156
:10074000094B1A6B42F480021A631B6B03F480039B
:100750000193019B0A46382003F0F8FA382003F091
:1007600029FB03B05DF804FB0038024000B585B0FA
:10077000002300930193029303932148214A0260CE
:100780004FF440324260836001220261027680F8B9
:100790002030C3621C498162C3600323C36180F8B7
:1007A0003020426101F0DEFFF0B901230093019394
:1007B000072302936946124802F008F9B8B90323E7
:1007C00000930223019369460D4802F0FFF888B9AF
:1007D00005230093032301936946094802F0F6F8C4
:1007E00058B905B05DF804FBFFF75AFFDDE7FFF7E6
:1007F00057FFE4E7FFF754FFEAE7FFF751FFF0E7A1
:1008000048020020002001400100000F10B596B002
:100810000024129413941494159410941194099430
:100820000A940B940C940D940E940F94202221465C
:1008300001A804F039FA2D482D4B03602A234360A8
:10084000846044F62063C36004614461846102F003
:10085000ADFA002837D14FF48053129312A92348E0
:1008600002F08AFB002831D1204802F0B9FA0028B2
:100870002FD100231093119310A91C4802F01CFCE7
:1008800050BB6023099300220A920B920C920D92A6
:100890000E920F9209A9154802F0F4FAF8B9002354
:1008A000019302930393049305934FF4005206922D
:1008B000089301A90D4802F022FC98B90B4800F0FA
:1008C0007BFB16B010BDFFF7EBFEC4E7FFF7E8FEB9
:1008D000CAE7FFF7E5FECCE7FFF7E2FED1E7FFF757
:1008E000DFFEDCE7FFF7DCFEE8E700BFF0020020F8
:1008F0000000014000B595B03022002108A804F0A6
:10090000D3F900230393049305930693079301936C
:10091000214A116C41F080511164126C02F0805236
:100920000192019A02931D4B1A6842F480421A60A8
:100930001B6803F480430293029B012308934FF446
:100940008033099302230E934FF480020F92042206
:100950001092A822119212930723139308A802F071
:10096000F7FB90B90F230393022104918023059391
:100970004FF4805306934FF4A053079303A802F05B
:100980001DFE28B915B05DF804FBFFF789FEE9E705
:10099000FFF786FEF6E700BF003802400070004017
:1009A00008B503F051FAFFF7A5FFFFF77BFEFFF74D
:1009B000C3FEFFF7DBFEFFF729FF00F007F8002179
:1009C000014802F059FB08BDF002002008B50022E2
:1009D0000F49104803F09EFA70B90F490D4803F013
:1009E000B0FA60B90D490B4804F0B9F850B909489C
:1009F00003F0AEFA48B908BDFFF752FEEDE7FFF786
:100A00004FFEEFE7FFF74CFEF1E7FFF749FEF2E795
:100A100000000020300300206C0000205000002067
:100A200030B589B00023039304930593069307938D
:100A30000368B3F1A04F01D009B030BD0025019586
:100A4000164C236B43F001032363236B03F0010374
:100A50000193019B4FF4C053039302230493032398
:100A600006930A23079303A90D4802F05BFE636B0C
:100A700043F0800363630295636C43F480436364D3
:100A8000636C03F480430293029B2A462946432069
:100A900003F05CF9432003F08DF9CDE70038024004
:100AA0000000024008B500F57171D0F8040403F0AD
:100AB00068FA08BD08B5C1EBC10293000344D3F83E
:100AC0000822D0F8040403F08AFA08BD08B5C1EB87
:100AD000C102930003449A6CD0F8040403F0C9FAED
:100AE00008BD08B5D0F8040403F067FB08BD10B5D5
:100AF0000446C3683BB1022B01D1012104E0FFF79A
:100B0000CFFD012100E00021D4F8040403F043FBF1
:100B1000D4F8040403F017FB10BD000010B5044620
:100B2000D0F8040403F03AFB2268D2F8003E43F008
:100B30000103C2F8003E236A23B1034A136943F05C
:100B40000603136110BD00BF00ED00E008B5D0F84A
:100B5000040403F02CFB08BD08B5D0F8040403F02E
:100B60003CFB08BD08B5D0F8040403F034FB08BD15
:100B700008B5D0F8040403F032FB08BD08B5D0F87E
:100B8000040403F02EFB08BD03780BB1002070476E
:100B900010B503461548C0F80434C3F898024FF066
:100BA000A0430360042343600222C2600023036168
:100BB0008261C36103624362C362036300F093FA1C
:100BC00080B90A4C8021204600F0C9FF4022002154
:100BD000204600F0A0FF80220121204600F09BFF6C
:100BE000002010BDFFF75CFDEBE700BFCC05002047
:100BF000D0F8983211F0800F08D101F07F01C1EBDD
:100C0000C1018A00134493F8FE01704701F07F018F
:100C1000C1EBC1018A00134493F83E00704708B548
:100C2000D0F8980200F0CCFE08BD022807D8DFE813
:100C300000F00206040000207047012070470220E7
:100C4000704708B5D0F8980200F0DEFAFFF7EDFF24
:100C500008BD10B51C4613462246D0F8980200F095
:100C60000BFEFFF7E2FF10BD08B5D0F8980200F0C8
:100C700043FEFFF7DAFF08BD08B5D0F8980200F090
:100C8000D2FEFFF7D2FF08BD08B5D0F8980200F0F9
:100C90000BFFFFF7CAFF08BD08B5D0F8980200F0B7
:100CA000D7FDFFF7C2FF08BD08B5D0F8980200F0E5
:100CB00090FEFFF7BAFF08BD08B5D0F8980200F023
:100CC00051FEFFF7B2FF08BD12230B8000487047AA
:100CD0001C00002004230B800048704730000020D7
:100CE0000023934216D230B40BE0373401F813409E
:100CF00000015C00013400250D550133DBB2934245
:100D000006D2040F092CF0D8303401F81340EFE775
:100D100030BC70477047000038B50A4B1868043380
:100D20001C6804331B68C01800D138BD064D08226A
:100D3000A91CFFF7D5FF042205F112012046FFF799
:100D4000CFFFF2E7107AFF1F3400002008B51A2306
:100D50000B80FFF7E1FF014808BD00BF3400002011
:100D600008B50A4628B90549054803F04DFD034872
:100D700008BD0249024803F047FDF8E7D409002006
:100D80009055000810B5044C0A462146034803F06C
:100D90003BFD204610BD00BFD40900207C55000853
:100DA00008B50A4628B90549054803F02DFD034852
:100DB00008BD0249024803F027FDF8E7D4090020E6
:100DC0006055000808B50A4628B90549054803F0EA
:100DD0001BFD034808BD0249024803F015FDF8E772
:100DE000D40900206C55000800207047002070478F
:100DF00010B5064C00220649204603F0B7FE05490F
:100E0000204603F0BBFE002010BD00BF30030020D1
:100E1000D4130020D40B0020094BD3F89032D3F820
:100E200014320BB10120704710B50A460146044C3C
:100E3000204603F09BFE204603F0A6FE10BD00BF37
:100E40003003002070B504460E46074D0146284683
:100E500003F094FE284603F0B1FE31682046FFF708
:100E6000F1FB002070BD00BF300300207047FEE79B
:100E7000FEE7FEE7FEE770477047704708B502F0EF
:100E8000FDFF08BD08B5024802F060FE08BD00BFC6
:100E90009002002008B5024800F08AFA08BD00BFA1
:100EA000CC05002082B0002100910B4B5A6C42F41B
:100EB00080425A645A6C02F480420092009A019176
:100EC0001A6C42F080521A641B6C03F08053019339
:100ED000019B02B0704700BF0038024030B589B0B6
:100EE000002303930493059306930793026803F189
:100EF000804303F590339A4201D009B030BD0446D7
:100F00000025019503F58C335A6C42F480725A64C3
:100F10005A6C02F480720192019A02951A6B42F0A7
:100F200001021A631B6B03F001030293029B2A2345
:100F300003930323049303A9104802F0F3FB104822
:100F4000104B036045608560C5604FF480630361AA
:100F50004FF4006343614FF4005383614FF4807397
:100F6000C3610562456202F051FD18B9044BA363E9
:100F70009C63C2E7FFF794FBF8E700BF0000024064
:100F800090020020106402400268094B9A4200D08F
:100F9000704782B000230193064B5A6C42F0010265
:100FA0005A645B6C03F001030193019B02B070472C
:100FB000000001400038024000B587B000230193D3
:100FC000029303930493059302680F4B9A4202D055
:100FD00007B05DF804FB002300930C4B1A6B42F042
:100FE00010021A631B6B03F010030093009B4FF475
:100FF00000730193022302930123059301A904487E
:1010000002F090FBE4E700BF00000140003802401E
:10101000001002402DE9F04782B0D0F80080CA00ED
:10102000521A930003445A6D1B6D9A4255D8C1461B
:101030009B1AC1EBC104A2000244526C9A4200D335
:101040001A460C46074602F1030A4FEA9A0A15E0CF
:1010500006F1030A4FEA9A0AE3001B1B9D003D4478
:10106000A96C3B7C0093B3B2E2B2404601F0A8F811
:10107000AB6C3344AB646B6D1E446E6509EB44137B
:1010800003F510639B699BB2534512D3E3001B1B0E
:101090009A003A44516D136D99420AD24BB15B1AD2
:1010A000C4EBC4018A003A44566C9E42D0D31E461B
:1010B000CEE7E3001B1B980007443A6D7B6D9A4214
:1010C0000FD804F00F040123A340D8F8344824EAD1
:1010D0000304C8F83448002000E0012002B0BDE855
:1010E000F0870020FAE7F0B58BB0002800F08A8086
:1010F0000446056890F8BD3323B3032384F8BD3359
:10110000EB6B13F4807F01D100232361206800F092
:101110000BFE254655F8107B6E460FCD0FC60FCD42
:101120000FC695E8030086E80300231D0ECB384662
:1011300000F038FD58B1022384F8BD33012528465C
:101140000BB0F0BD80F8BC33FFF76AFCD5E7002197
:10115000206800F0EFFD00236568AB4216D2D9008D
:10116000C81A82002244012082F83D0082F83C30F7
:10117000A2F84230002082F83F0050649064CA1AFE
:101180009100214408650133DBB2E5E700239D426D
:1011900016D9D800C11A8A002244002182F8FD1114
:1011A00082F8FC3182F8FF11C2F80412C2F808126A
:1011B000C21A90002044C0F810120133DBB2E6E7F7
:1011C000254655F8107B6E460FCD0FC60FCD0FC6C6
:1011D00095E8030086E80300231D0ECB384600F097
:1011E000EFFD054620B1022384F8BD330125A6E7B3
:1011F000002384F83830012384F8BD33206801F0DF
:101200008AF99CE701259AE7026890F8BC33012B24
:1012100019D010B5012380F8BC33836A012B0AD0A2
:101220000446006801F06BF9206800F077FD0020AB
:1012300084F8BC0310BD8369012BF1D0936B43F498
:1012400080339363ECE702207047000070B50546D9
:101250000E460368196C03EB461303F53064A3686C
:101260000269012A09D0354A914261D113F4004F35
:1012700054D04FF40043A3605DE013F0080F14D086
:101280002F4A914205D913F4004F02D04FF4004386
:10129000A3602846FFF706FC05F571720121286856
:1012A00001F096F90823A36045E013F0200F02D067
:1012B0002023A3603FE013F0280F3CD1204A914245
:1012C00006D913F4004F03D04FF40043A36032E07B
:1012D000F200921B93002B44D3F804222169C1F33E
:1012E0001201521AC3F81422D3F80412D3F80822B8
:1012F0000A44C3F80822F1B22846FFF7DBFBD6B94F
:10130000C6EBC606B3002B44D3F810329BB905F5E3
:1013100071720121286801F05BF90CE013F0200FD5
:1013200001D02023A360F1B22846FFF7C3FB02E0FF
:10133000F1B2FFF7BFFB002070BD00BF0A31544F70
:101340000A30544F38B5044603681D6C03EB411155
:1013500001F530618A680369012B0DD0124B9D4263
:1013600014D02046FFF79EFB104B9D4202D9236903
:10137000012B12D0002038BD0C4B9D42F1D912F444
:10138000004FEED04FF400438B60EAE712F4004FB9
:10139000E7D04FF400438B60E3E704F5717201215D
:1013A000206801F015F9E5E70A31544F0A30544F2F
:1013B0002DE9F84F04460568284601F0E9F808B120
:1013C000BDE8F88F2F460646206801F0B0F80028E7
:1013D000F6D0206801F0ABF810F0020F04D02268BC
:1013E000536903F002035361206801F0A0F810F480
:1013F000002F74D1206801F09AF810F4802F40F08B
:10140000C280206801F093F80028C0F2348120687F
:1014100001F08DF810F4006F0AD0D5F8083813F0F9
:10142000010F40F042812268536903F40063536165
:10143000206801F07CF810F4805F40F03A81206869
:1014400001F075F810F4005F40F08D81206801F024
:101450006EF810F0100F14D02268936923F0100377
:1014600093612E6A06F00F07C6F34343022B00F088
:101470009281062B00F0B0812268936943F010033B
:101480009361206801F053F810F0080F40F0B68126
:10149000206801F04CF810F4801F40F0B8812068FB
:1014A00001F045F810F4001F40F0BB81206801F006
:1014B0003EF810F0804F40F0BE81206801F037F810
:1014C00010F0040F3FF47CAF23685D6815F0040F43
:1014D00040F0BA81226853682B43536070E720685C
:1014E00001F029F88046B14625E007EB49130122B7
:1014F000C3F8082B49462046FFF7A8FE2BE04946D3
:101500002046FFF71FFF07EB49130822C3F8082BFB
:1015100024E007EB49132022C3F8082B1AF4005FDC
:1015200005D007EB49134FF40052C3F8082B09F11B
:1015300001094FEA5808B8F1000F3FF45BAF18F00B
:10154000010FF4D05FFA89F1206801F004F88246B7
:1015500010F0010FC9D11AF0080FD0D11AF0100FF6
:1015600004D007EB49131022C3F8082B1AF0200F00
:10157000D4D02369012BCCD104F5717201212068EC
:1015800001F026F8C5E7206800F0DDFF8046B1468F
:1015900031E04FEAC902A2EB090293002344596CDF
:1015A0009A6C0A449A6449E01AF0080F04D007EBD9
:1015B00049130822C3F808291AF0100F04D007EBCA
:1015C00049131022C3F808291AF0400F04D007EB82
:1015D00049134022C3F808291AF0020F04D007EB80
:1015E00049130222C3F808291AF0800F3ED109F1ED
:1015F00001094FEA5808B8F1000F3FF402AF18F0A4
:10160000010FF4D05FFA89FB5946206800F0ACFF67
:10161000824610F0010FC7D009F00F03012101FA33
:1016200003F2D7F8343823EA0203C7F8343807EB5B
:101630004913C3F8081923698B42AAD0594620469A
:10164000FFF744FA2369012BAED1B9F1000FABD1FA
:10165000C9EBC902930023441B6D002BA4D104F5F0
:1016600071720121206800F0B3FF9DE749462046D2
:10167000FFF7D0FCBBE7D5F8043823F00103C5F829
:10168000043894F8F433012B08D02046FFF75EFAB3
:101690002268536903F000435361B8E6002184F8DF
:1016A000F413204600F05FFAF2E72046FFF736FA1F
:1016B000B9E605F50068D8F8043023F00103C8F84E
:1016C00004301021206800F04DFB6368B34215D947
:1016D00007EB46134FF67F31C3F80819D3F80029FA
:1016E00022F40012C3F80029C3F8081BD3F8002B1A
:1016F00022F40012C3F8002B0136E6E7D8F81C30BC
:1017000043F00113C8F81C30236BEBB1D8F88430D8
:1017100043F00B03C8F88430D8F8443043F00B038F
:10172000C8F84430D5F8003823F4FE63C5F8003813
:1017300004F57172217C206800F04AFF2268536929
:1017400003F4805353617AE6D8F8143043F400531D
:1017500043F02B03C8F81430D8F8103043F00B03D3
:10176000C8F81030DEE7206800F016FF206800F0AF
:10177000F5FBE060266801F0CFFF227B0146304692
:1017800000F056FA2046FFF7B2F92268536903F4D5
:10179000005353615AE647F6F0731E423FF46CAEB5
:1017A00036094FEAC709A9EB07034FEA8308A044AB
:1017B000C6F30A02D8F80812284600F021FEC6F344
:1017C0000A06D8F808323344C8F80832D8F8143278
:1017D0001E44C8F814624FE6082204F571712846C9
:1017E00000F00EFEC6F30A16FB00D91B8A00224445
:1017F000D2F814321E44C2F814623DE62046FFF7C8
:1018000070F92268536903F00803536140E6002130
:101810002046FFF7A7F92268536903F48013536148
:101820003DE600212046FFF797F92268536903F44B
:10183000001353613AE62046FFF79AF9226853698C
:1018400003F08043536138E62046FFF797F941E6FD
:1018500090F8BC33012B0DD010B50446012380F85D
:10186000BC3380F83810006800F039FE002084F89E
:10187000BC0310BD02207047F8B511F0800F27D1CE
:1018800001F00F05EE00771BBC00274604F5FC7441
:10189000044404340744002587F8FD5101F00F018A
:1018A0002170A260E370627802B1E180022B1ED049
:1018B00090F8BC33012B1DD00546012380F8BC33C2
:1018C0002146006800F05BFB002085F8BC03F8BDF2
:1018D00001F00F06F500AF1BBC0027463834044466
:1018E00004343E460644012586F83D50D6E70023E1
:1018F0002371DDE70220EAE738B511F0800F20D12F
:1019000001F00F04E200151BAB001D4603F5FC734C
:10191000034404330544002285F8FD2101F00F0142
:10192000197090F8BC23012A1AD00446012280F8CD
:10193000BC231946006800F06DFB002084F8BC034E
:1019400038BD01F00F04E200151BAB001D46383313
:10195000034404332C460444012284F83D20DDE78F
:101960000220EDE770B501F00F05EE00711B8C0051
:1019700004F5FC740444211D761BB4000444C4F82F
:101980000822C4F810320023C4F8143284F8FD3160
:1019900084F8FC510369012B06D065B9DAB20068FE
:1019A00000F080FB002070BDC5EBC506B400044408
:1019B000C4F80C22F1E7DAB2006800F015FCF1E798
:1019C00001F00F01C1EBC1018B001844D0F81402E3
:1019D000704770B501F00F05EE00711B8C003834B4
:1019E0000444211D761BB4000444A2642365002333
:1019F0006365012384F83D3084F83C500369012B72
:101A000006D05DB9DAB2006800F04CFB002070BD72
:101A1000C5EBC506B4000444E264F2E7DAB200683C
:101A200000F0E2FBF2E738B501F00F0543689D4294
:101A300036D811F0800F20D1CA00541AA3001C46DA
:101A400003F5FC730344043322460244002182F868
:101A5000FD1101229A701D7090F8BC23012A21D03B
:101A60000446012280F8BC231946006800F0DCFC23
:101A70007DB1002084F8BC0338BDEA00511B8B0007
:101A800019463833034404330144012281F83D20D0
:101A9000DFE704F57172217C206800F099FDE8E72A
:101AA0000120E9E70220E7E710B501F00F044368E1
:101AB0009C422CD811F0800F1DD1E3001A1B91001D
:101AC0000A4601F5FC71014404310244002382F806
:101AD000FD3100238B700C7090F8BC33012B18D0B3
:101AE0000446012380F8BC33006800F0CAFC0020E3
:101AF00084F8BC0310BDE3001A1B91000A4638317C
:101B0000014404310244012382F83D30E1E7012021
:101B1000F0E70220EEE730B40468606A29B940EAD1
:101B20000240A062002030BC70470D46A36A00EB63
:101B300013400023691E8B4209D203F1400104EBDC
:101B40008101496800EB11400133DBB2F2E740EA62
:101B5000024005F13F0104EB81014860E2E70368C0
:101B60005962002070477047002301330C4A9342AA
:101B700011D80269002AF8DA036943F0010303610E
:101B800000230133064A934207D8026912F0010F7D
:101B9000F7D100207047032070470320704700BF33
:101BA000400D030084B010B5044603A880E80E0081
:101BB000089B012B1FD1A36B23F48033A363E3683D
:101BC00023F4840323F04003E360E36823F4401329
:101BD000E3600F9B012B09D02046FFF7C5FF069B52
:101BE000012B1BD0BDE8104004B07047E36843F4FC
:101BF0008013E360F0E7E36843F04003E3602046CE
:101C0000FFF7B2FF0C9B23B9A36B43F48033A363AC
:101C1000E5E7A36B23F48033A363E0E7A36843F015
:101C20000603A360A36843F02003A360DAE7000083
:101C3000022A0AD00921C26822F47052C260C36825
:101C400043EA8123C360002070472A4B0B442A4A91
:101C500093423DD9294B0B44294A93423AD9A1F5E5
:101C60007403A3F51053274A934235D9A1F1837326
:101C7000A3F5E74302F5C332A03293422ED9224B9B
:101C80000B44224A93422BD9214B0B4402F592225A
:101C900002F57872934225D91E4B0B4402F5C322FC
:101CA00002F5207293421FD9A1F1B773A3F55853DF
:101CB00002F5B71202F55872934217D9164B0B442E
:101CC00002F5122202F5F862934211D80721B2E719
:101CD0000F21B0E70E21AEE70D21ACE70C21AAE7FA
:101CE0000B21A8E70A21A6E70921A4E70821A2E71A
:101CF0000621A0E7405327FFFF340C00401E1BFFC6
:101D00003F420F007F4F120060B6E5FE5FE3160012
:101D100000D3CEFEC05BB3FEE05459FE836843F0AF
:101D20000103836000207047836823F00103836010
:101D30000020704708B5C36823F0C043C360012981
:101D400009D069B9C36843F08043C360322002F010
:101D5000A7F8002008BDC36843F00053C360F5E74F
:101D60000120F7E7890141F02001016100230133DF
:101D7000054A934205D8026912F0200FF7D10020DE
:101D800070470320704700BF400D0300102303611C
:101D900000230133054A934205D8026912F0100F5F
:101DA000F7D1002070470320704700BF400D0300AB
:101DB000D0F800381943C0F8001800207047000020
:101DC00084B0F8B5044607A880E80E002546002335
:101DD0000E2B07D803F1400204EB82020021516070
:101DE0000133F5E7119BF3B9A36B43F40013A3632D
:101DF000A36B23F40023A363A36B23F48023A363C7
:101E00000023C4F8003E04F50066D4F80038C4F896
:101E100000380C9B012B14D1099B6BB90021204683
:101E2000FFF7C6FF11E0236823F400132360A36BC0
:101E300043F40023A363E3E701212046FFF7B8FF43
:101E400003E003212046FFF7B3FF10212046FFF7F0
:101E500089FF074600B101272046FFF797FF00B131
:101E60000127002333617361F3610AE0C3B94FF0C6
:101E70000060C2F8000900220A614FF67F328A60D2
:101E80000133079A9A4210D905EB431202F510610B
:101E9000D2F800090028E9DB0020C2F80009EAE7CF
:101EA0004FF09040C2F80009E5E700230AE0C3B90B
:101EB0004FF00060C2F8000B00220A614FF67F323B
:101EC0008A600133079A9A4210D905EB431202F552
:101ED0003061D2F8000B0028E9DB0020C2F8000BCB
:101EE000EAE74FF09040C2F8000BE5E7336923F4CE
:101EF000807333610A9B012B1BD00022A2616FF01B
:101F0000804262611BB9A36943F01003A361A26917
:101F1000104B1343A3610D9B1BB1A36943F008034E
:101F2000A361119B012B0DD03846BDE8F84004B0E9
:101F30007047094A3263326B42F4803242F0030246
:101F40003263DAE7A36943F0804343F00403A361FB
:101F5000EAE700BF00383C8000018000D0F8083874
:101F600013F0060307D0022B07D0062B01D00F2059
:101F7000704702207047002070470220704770B4FD
:101F80000B784A78012A22D0D0F81C2803F00F06DB
:101F90000124B44042EA0442C0F81C2800EB43107C
:101FA000D0F8003B13F4004F0ED1D0F8003B8A6804
:101FB000C2F30A02C97842EA8142134343F08053D4
:101FC00043F40043C0F8003B002070BC7047D0F8D9
:101FD0001C4803F00F06B24092B22243C0F81C28FE
:101FE00000EB4310D0F8002912F4004FECD1D0F8E8
:101FF00000298C68C4F30A04C97844EA814444EA9D
:102000008353134343F0805343F40043C0F8003933
:10201000DAE7000070B40B784A78012A1FD0D0F8B4
:102020003C5803F00F06012404FA06F625EA06459B
:10203000C0F83C58D0F81C58097801F00F018C40CA
:1020400025EA0444C0F81C4800EB4310D0F8002BEC
:10205000124B1340C0F8003B002070BC7047D0F812
:102060003C6803F00F0402FA04F4A4B226EA040464
:10207000C0F83C48D0F81C48097801F00F018A40AC
:1020800092B224EA0202C0F81C2800EB4310D0F8F8
:102090000039034A1A40C0F80029DDE70078F3EF61
:1020A000007833EC70B40B784C78012C26D000EB20
:1020B000431000F530631C69E40CE4041C611C69E6
:1020C00024F0FF5424F4C0141C614C690CB18C68DA
:1020D0004C611C6944F400241C611C698D68C5F3C3
:1020E00012052C431C61012A65D0D0F8003B43F057
:1020F0000443C0F8003B002070BC70474C696CBBC7
:1021000000EB4314D4F8105925F0FF5525F4C01501
:10211000C4F81059D4F8105945F40025C4F81059E2
:10212000D4F81059ED0CED04C4F81059012A33D03D
:1021300000EB4313D3F8002942F00442C3F800290E
:102140004B69002BD7D0D0F83428097801F00F0460
:102150000121A1400A43C0F83428CCE700EB431426
:1021600004F510642569ED0CED042561256925F061
:10217000FF5525F4C01525614E698D68AE4200D922
:102180004D61256945F40025256125694E69C6F331
:10219000120635432561C9E70A691AB100EB4311FC
:1021A000C1F8142900EB4310D0F8002942F0044292
:1021B000C0F800299FE7CA68002A96D05A6194E7C0
:1021C00070B49DF80C4064B903339E08B44208D241
:1021D00000EB023303F5805351F8045B1D600134BA
:1021E000F4E7002070BC7047F0B583B00B784C78F2
:1021F000012C2BD000EB431303F530642569ED0C63
:10220000ED042561256925F0FF5525F4C0152561EC
:102210004D69002D40F0C38025698E68C6F3120613
:1022200035432561256945F400252561012A00F023
:10223000CB80CA78012A00F0CD80D3F8002B42F081
:102240000442C3F8002B002003B0F0BD4C6984BBEE
:1022500000EB4314D4F8105925F0FF5525F4C015B0
:10226000C4F81059D4F8105945F40025C4F8105991
:10227000D4F81059ED0CED04C4F81059012A4CD0D3
:1022800000EB4313D3F8004944F00444C3F8004979
:10229000CC78012C6AD04B69002BD4D0D0F83428EC
:1022A000097801F00F040121A1400A43C0F8342845
:1022B000C9E700EB4314D4F81059ED0CED04C4F851
:1022C0001059D4F8105925F0FF5525F4C015C4F85D
:1022D0001059D4F810694D698F683D44013DB5FB34
:1022E000F7F5464F07EAC5453543C4F81059D4F809
:1022F00010594E69C6F312063543C4F8105904F557
:102300001064CD78012DB9D1256925F0C04525612E
:10231000256945F000552561B0E70A691AB100EB5F
:102320004314C4F81429CA78012A08D000EB4313D7
:10233000D3F8002942F00442C3F8002983E7D0F81B
:10234000082812F4807F08D100EB4311D1F800294E
:1023500042F00052C1F80029E8E700EB4311D1F840
:10236000002942F08052C1F80029DFE7D0F8084880
:1023700014F4807F0CD1D3F8004944F00054C3F822
:10238000004900928B8A0A78C968FFF719FF5AE75B
:10239000D3F8004944F08054C3F80049F1E78E684F
:1023A0003544013DB5FBF6F52669144F07EAC547EC
:1023B0003E43266127698E68ADB206FB05F5C5F37D
:1023C00012053D43256131E7CA68002A3FF431AF69
:1023D00062612EE7D0F8082812F4807F06D1D3F886
:1023E000002B42F00052C3F8002B26E7D3F8002B55
:1023F00042F08052C3F8002B1FE700BF0000F81F17
:1024000003329208002393420CD210B400F580549A
:10241000246841F8044B01339342F7D308465DF832
:10242000044B7047084670470B784A78012A14D04D
:1024300000EB4310D0F8002B002A06DB2BB1D0F8BC
:10244000003B23F08043C0F8003BD0F8003B43F44E
:102450000013C0F8003B0020704700EB4310D0F899
:102460000029002A06DB2BB1D0F8003923F0804385
:10247000C0F80039D0F8003943F40013C0F800392F
:10248000E9E70B784A78012A0ED000EB4310D0F828
:10249000003B23F40013C0F8003BCB78023BDBB2D7
:1024A000012B15D90020704700EB4310D0F80039FC
:1024B00023F40013C0F80039CB78023BDBB2012BC8
:1024C000F0D8D0F8003943F08053C0F80039E9E77C
:1024D000D0F8003B43F08053C0F8003BE2E7D0F86F
:1024E000003823F4FE63C0F80038D0F80038090142
:1024F00001F4FE610B43C0F800380020704708B5B6
:10250000D0F8043823F00203C0F80438032001F0A7
:10251000C7FC002008BD08B5D0F8043843F002031A
:10252000C0F80438032001F0BBFC002008BD42695C
:10253000806910407047D0F8183800F50060C06915
:102540001840000C7047D0F8183800F50060C069DA
:10255000184080B2704700EB4111D1F8082B00F50C
:10256000006040691040704710B4D0F81048D0F8AF
:10257000343801F00F02D340DB01DBB2234300EB20
:10258000411000F51060806818405DF8044B7047FA
:10259000406900F001007047D0F8003923F4FF6370
:1025A00023F00703C0F8003900F500639A6802F0D1
:1025B0000602042A05D05A6842F480725A6000204C
:1025C0007047D0F8002942F00302C0F80029F2E772
:1025D00010B4046C154B9C4203D9D0F8003B002B7F
:1025E00016DB0024C0F8104BD0F8104B44F4002444
:1025F000C0F8104BD0F8104B44F01804C0F8104B42
:10260000D0F8104B44F0C044C0F8104B012903D05F
:1026100000205DF8044B7047C0F8142BD0F8003B45
:1026200043F08023C0F8003BF2E700BF0A30544F6C
:102630004A4B5A6822F440325A605A6841680A4349
:102640005A600268536823F48073536002685368C9
:10265000016943EA012353600268536823F0407321
:1026600053600268536881680B4353600268936843
:1026700023F40063936002689368C1680B4393601E
:10268000826A374B9A4257D00268936823F070638E
:10269000936002689368816A0B4393600268936851
:1026A00023F04053936002689368C16A0B439360C0
:1026B0000268936823F00203936002689368017EC6
:1026C00043EA4103936090F82030002B3FD002682A
:1026D000536843F4006353600268536823F4604313
:1026E000536001684B68426A013A43EA42334B60E7
:1026F0000268D36A23F47003D3620168CB6AC269AB
:10270000013A43EA0253CB620268936823F40073F0
:1027100093600268936890F8301043EA4123936015
:102720000268936823F48063936002689368416948
:1027300043EA8123936070470268936823F07063D3
:1027400093600268936823F040539360B0E7026897
:10275000536823F400635360CAE700BF00230140BD
:102760000100000F38B310B50446036C43B1236C6D
:1027700013F0100F0BD00120002384F83C3010BD63
:10278000FEF7ACFB0023636484F83C30EFE7236C76
:1027900023F4885323F0020343F00203236420460A
:1027A000FFF746FF00206064236C23F0030343F02F
:1027B00001032364E0E701207047000030B583B0D7
:1027C0000023019390F83C30012B00F09A80012304
:1027D00080F83C300468A36813F0010F12D1A3689D
:1027E00043F00103A3604B4B1C684B4BA3FB043429
:1027F000A40C04EB44040194019C1CB1019C013C19
:102800000194F9E703689C6814F0010F7BD0046C15
:1028100024F4E06424F0010444F4807404645B68EC
:1028200013F4806F05D0036C23F4405343F48053BA
:102830000364036C13F4805F38D0436C23F0060309
:10284000436413460446002280F83C20826B3348E0
:10285000D063A26B32481064A26B3248D064226805
:102860006FF0220010602568686840F08060686042
:102870002568A86840F48070A86020680A4600F1C6
:102880004C01A06B01F028F9274B5B6813F01F0F78
:1028900027D12368254A934211D002F580729342D2
:1028A00007D0234A934214D000202DE00023436434
:1028B000C7E702F50072526812F01F0FF1D19A6853
:1028C00012F0405F22D19A6842F080429A60002064
:1028D0001AE002F58072526812F0100FEFD000205B
:1028E00012E02368114A934201D000200CE09A685C
:1028F00012F0405F0CD19A6842F080429A6000204A
:1029000002E0022000E0002003B030BD0020FBE721
:102910000020F9E76800002083DE1B435B290008E4
:102920003929000845290008002301400020014002
:10293000002201407047704708B5806BFFF7FBFF2E
:1029400008BD704708B5806B40230364436C43F0B7
:1029500004034364FFF7F5FF08BD08B5836B1A6CE9
:1029600012F0500F26D11A6C42F400721A641A68E1
:10297000916811F0405F19D1197EB9B9D16A11F48B
:10298000700F03D0916811F4806F0FD1516821F05E
:10299000200151601A6C22F480721A641A6C12F4CD
:1029A000805F03D11A6C42F001021A641846FFF7E7
:1029B000C1FF08BD1A6C12F0100F03D19B6BDB6CCA
:1029C0009847F6E71846FFF7BCFFF2E730B482B04D
:1029D0000023019390F83C30012B00F0B6800123D6
:1029E00080F83C300B68092B3ED90568EA689BB239
:1029F00003EB43031E3B072404FA03F322EA030319
:102A0000EB600568EA688C680B8803EB43031E3BA8
:102A100004FA03F31343EB604B68062B3AD80568BE
:102A20006A6B03EB8303053B1F2404FA03F322EADA
:102A300003036B6305686A6B4B6803EB8303053B19
:102A40000C8804FA03F313436B630268404B9A4209
:102A500050D002683E4B9A4255D0002380F83C305B
:102A6000184602B030BC704705682A699BB203EB78
:102A70004303072404FA03F322EA03032B610568E6
:102A80002A698C680B8803EB430304FA03F31343AE
:102A90002B61C1E70C2B16D805682A6B03EB830367
:102AA000233B1F2404FA03F322EA03032B63056884
:102AB0002A6B4B6803EB8303233B0C8804FA03F374
:102AC00013432B63C1E70568EA6A03EB8303413BC9
:102AD0001F2404FA03F322EA0303EB620568EA6A9F
:102AE0004B6803EB8303413B0C8804FA03F3134365
:102AF000EB62AAE70B68122BABD1164A536843F47A
:102B000080035360A5E70B68103B012BA5D8114A41
:102B1000536843F4000353600B68102B9DD10E4B98
:102B20001B6802F1467202F52E3202F28332A2FBDA
:102B300003239B0C03EB83035A000192019B002BA0
:102B40008BD0019B013B0193F8E7022089E700BF8E
:102B500000200140002301406800002030B4036AD7
:102B600023F001030362056A4268846924F0730458
:102B70000B681C4325F002058B682B43104DA842BF
:102B800003D005F58065A84205D123F00803CD6880
:102B90002B4323F004030A4DA84203D005F58065BA
:102BA000A84205D122F440724D6915438A692A432F
:102BB000426084614A684263036230BC704700BF70
:102BC0000000014030B4036A23F480730362036A97
:102BD0004268C46924F073040D682C4323F4007325
:102BE0008D6843EA0523124DA84203D005F58065A0
:102BF000A84206D123F40063CD6843EA052323F4F9
:102C000080630B4DA84203D005F58065A84207D12B
:102C100022F440524D6942EA05128D6942EA0512DA
:102C20004260C4614A68C263036230BC704700BF3F
:102C30000000014030B4036A23F480530362036A46
:102C40004468C26922F4E6420D6842EA052223F490
:102C500000538D6843EA0533094DA84203D005F5BA
:102C60008065A84204D124F480444D6944EA851467
:102C70004460C2614A680264036230BC704700BFAE
:102C80000000014010B4036A046A24F001040462E5
:102C9000846924F0F00444EA021223F00A030B438F
:102CA000826103625DF8044B704710B4036A23F03D
:102CB000100303628469036A24F4704444EA023214
:102CC00023F0A00343EA0113826103625DF8044B21
:102CD0007047836823F07003194341F00701816056
:102CE000704770470368304A904212D0B0F1804F6D
:102CF0000FD0A2F57C4290420BD002F58062904248
:102D000007D002F58062904203D002F578429042EB
:102D100003D123F070034A681343234A90422AD018
:102D2000B0F1804F27D0A2F57C42904223D002F52B
:102D3000806290421FD002F5806290421BD002F563
:102D40007842904217D002F57052904213D002F5AB
:102D5000806290420FD002F5806290420BD0A2F5C3
:102D60009832904207D002F58062904203D002F57B
:102D70008062904203D123F44073CA68134323F066
:102D800080034A69134303608B68C3620B688362E4
:102D9000054B984203D003F58063984201D10B693B
:102DA000036301234361704700000140B0B110B5D7
:102DB000044690F83D3063B1022384F83D3021464B
:102DC00051F8040BFFF78EFF012384F83D300020FB
:102DD00010BD80F83C30FEF7D7F8EDE701207047D2
:102DE000B0B110B5044690F83D3063B1022384F8C9
:102DF0003D30214651F8040BFFF774FF012384F89E
:102E00003D30002010BD80F83C30FFF76AFFEDE751
:102E10000120704730B4036A23F010030362036A91
:102E20004468826922F4E6420D6842EA052223F0F2
:102E300020038D6843EA0513114DA84203D005F520
:102E40008065A84206D123F08003CD6843EA0513CC
:102E500023F040030A4DA84203D005F58065A8423F
:102E600007D124F440644D6944EA85048D6944EA3D
:102E70008504446082614A688263036230BC7047A3
:102E80000000014038B590F83C30012B66D00D466B
:102E90000446012380F83C30022380F83D300C2AA0
:102EA0001AD8DFE802F0071919192019191934196D
:102EB000191947000068FFF751FE2268936943F033
:102EC000080393612268936923F0040393612268E5
:102ED000936929690B439361012384F83D300020F5
:102EE00084F83C0038BD0068FFF794FF22689369BE
:102EF00043F4006393612268936923F480639361D0
:102F000022689369296943EA01239361E4E7006831
:102F1000FFF758FE2268D36943F00803D3612268A3
:102F2000D36923F00403D3612268D36929690B4371
:102F3000D361D1E70068FFF77DFE2268D36943F4CF
:102F40000063D3612268D36923F48063D36122686C
:102F5000D369296943EA0123D361BDE70220C1E7B0
:102F600010B4846824F47F4442EA03230B432343D0
:102F700083605DF8044B704790F83C30012B67D0BC
:102F800010B50446012380F83C30022380F83D3020
:102F90000268936823F47F4323F0770393600B6800
:102FA000402B4BD013D9602B3ED025D9702B2FD07E
:102FB000B3F5005F19D1CB684A6889680068FFF7EC
:102FC000CFFF2268936843F4804393600DE0102B99
:102FD00004D008D9202B01D0302B06D11946206807
:102FE000FFF777FE01E0002BF8D0012384F83D3095
:102FF000002084F83C0010BD502BF6D1CA68496807
:103000000068FFF73FFE50212068FFF762FEECE703
:10301000CB684A6889680068FFF7A2FF2268936856
:1030200043F077039360E0E7CA6849680068FFF7F8
:103030003CFE60212068FFF74CFED6E7CA6849686D
:103040000068FFF71FFE40212068FFF742FECCE733
:103050000220704710B401F01F01012303FA01F4AC
:10306000036A23EA04030362036A8A401343036288
:103070005DF8044B7047000010B50446012200685B
:10308000FFF7E8FF23680B4A934203D002F5806202
:10309000934203D15A6C42F400425A642268936806
:1030A00003F00703062B03D0136843F001031360FA
:1030B000002010BD0000014090F83C30012B1CD0D6
:1030C00070B4012680F83C60022380F83D3002682D
:1030D0005568936825F070050C682C4323F0800533
:1030E0004B682B4354600268936080F83D60002376
:1030F00080F83C30184670BC70470220704790F84A
:103100003C30012B22D0012380F83C30CB6823F4E3
:1031100040738A68134323F480634A68134323F49B
:1031200000630A68134323F480530A69134323F4AA
:1031300000534A69134323F48043CA691343026866
:103140005364002380F83C301846704702207047D3
:10315000002800F0B98170B582B00446036813F00E
:10316000010F3BD0A64B9B6803F00C03042B2CD023
:10317000A34B9B6803F00C03082B21D06368B3F5C5
:10318000803F4FD0B3F5A02F52D09D4B1A6822F448
:1031900080321A601A6822F480221A606368002B59
:1031A00050D000F077FE0546954B1B6813F4003FA6
:1031B00014D100F06FFE401B6428F5D903208AE18A
:1031C0008F4B5B6813F4800FD8D08D4B1B6813F4C2
:1031D000003F03D06368002B00F07881236813F070
:1031E000020F54D0864B9B6813F00C0F3ED0844BDB
:1031F0009B6803F00C03082B33D0E368002B67D0E7
:10320000804B01221A6000F045FE05467C4B1B688E
:1032100013F0020F53D100F03DFE401B0228F5D9F8
:10322000032058E1764A136843F480331360B5E70E
:10323000734B1A6842F480221A601A6842F4803292
:103240001A60ABE700F026FE05466D4B1B6813F4D1
:10325000003FC3D000F01EFE401B6428F5D90320B8
:1032600039E1674B5B6813F4800FC6D1644B1B6870
:1032700013F0020F03D0E368012B40F02981604A6C
:10328000136823F0F803216943EAC103136023683C
:1032900013F0080F40D0636963B35B4B01221A60DF
:1032A00000F0F8FD0546564B5B6F13F0020F33D16B
:1032B00000F0F0FD401B0228F5D903200BE1504A35
:1032C000136823F0F803216943EAC1031360DEE7C2
:1032D0004C4B00221A6000F0DDFD0546484B1B6890
:1032E00013F0020FD3D000F0D5FD401B0228F5D912
:1032F0000320F0E0444B00221A6000F0CBFD0546AD
:103300003F4B5B6F13F0020F06D000F0C3FD401B74
:103310000228F5D90320DEE0236813F0040F78D0EB
:10332000374B1B6C13F0805F33D100230193344B78
:103330001A6C42F080521A641B6C03F080530193A4
:10334000019B0125314B1B6813F4807F23D0A368B8
:10335000012B34D0052B38D0294B1A6F22F00102F3
:103360001A671A6F22F004021A67A368002B36D07E
:1033700000F090FD0646224B1B6F13F0020F47D161
:1033800000F088FD801B41F288339842F3D9032076
:10339000A1E00025D6E71D4A136843F4807313604B
:1033A00000F078FD0646194B1B6813F4807FCED1E0
:1033B00000F070FD801B0228F5D903208BE0104A35
:1033C000136F43F001031367CFE70D4B1A6F42F001
:1033D00004021A671A6F42F001021A67C5E700F08B
:1033E00059FD0646064B1B6F13F0020F10D000F07C
:1033F00051FD801B41F288339842F3D903206AE0E3
:103400000038024000004742800E474200700040F2
:10341000E5B9A369002B5DD0314A926802F00C0235
:10342000082A5AD0022B17D02E4B00221A6000F027
:1034300031FD04462A4B1B6813F0007F42D000F098
:1034400029FD001B0228F5D9032044E0244A136C0F
:1034500023F080531364DCE7224B00221A6000F053
:1034600019FD05461E4B1B6813F0007F06D000F0C7
:1034700011FD401B0228F5D903202CE0E369226AE4
:103480001343626A43EA8213A26A5208013A43EA8A
:103490000243E26A43EA0263114A5360114B01227C
:1034A0001A6000F0F7FC04460D4B1B6813F0007F18
:1034B00006D100F0EFFC001B0228F5D903200AE03A
:1034C000002008E0002006E001207047012002E013
:1034D000012000E0002002B070BD0120FBE700BF2A
:1034E0000038024060004742314B9B6803F00C03F8
:1034F000042B58D0082B58D170B52D4B5A6802F0C8
:103500003F025B6813F4800F2AD0294B5868C0F340
:1035100088100546002643011B1A66EB0604A1012C
:1035200041EA93619801C01A61EB0401CB0043EAC0
:103530005073C4001946601946EB01014B0243EA7F
:10354000D0534402204619463346FCF799FE184BE7
:103550005B68C3F3014301335B00B0FBF3F070BD64
:10356000134B5868C0F388100546002643011B1A08
:1035700066EB0604A10141EA93619801C01A61EB70
:103580000401CB0043EA5073C4001946601946EBAE
:1035900001018B0243EA90538402204619463346C8
:1035A000FCF76EFED3E7034870470348704700BF3F
:1035B0000038024000127A000024F400002800F0D5
:1035C0009A8070B50446504B1B6803F00F038B4282
:1035D00008D2CBB24C4A1370136803F00F038B422E
:1035E00040F08B80236813F0020F17D013F0040F04
:1035F00004D0464A936843F4E0539360236813F081
:10360000080F04D0414A936843F4604393603F4AF3
:10361000936823F0F003A068034393600D4623688A
:1036200013F0010F32D06368012B21D09A1E012ABA
:1036300025D9364A126812F0020F60D033498A68E1
:1036400022F0030213438B6000F024FC06462F4B4C
:103650009B6803F00C036268B3EB820F16D000F096
:1036600019FC801B41F288339842F0D9032041E0D5
:10367000264A126812F4003FE0D101203AE0234AC2
:10368000126812F0007FD9D1012033E01E4B1B6875
:1036900003F00F03AB4207D9EAB21B4B1A701B6849
:1036A00003F00F03AB422CD1236813F0040F06D0B4
:1036B000164A936823F4E053E1680B439360236850
:1036C00013F0080F07D0114A936823F4604321696F
:1036D00043EAC1039360FFF707FF0C4B9B68C3F3FA
:1036E00003130B4AD35CD8400A4B1860002000F04B
:1036F00085FB002070BD012070470120FAE7012002
:10370000F8E70120F6E700BF003C02400038024025
:10371000B055000868000020014B1868704700BFD2
:103720006800002000230F2B00F2D680F0B482B096
:1037300039E0072200E00022B2403A430235674EEA
:1037400046F82520664A1568E24302EA05064F68F6
:1037500017F4803F01D044EA0506614D2E606D6884
:1037600002EA05064F6817F4003F01D044EA050657
:103770005B4D6E60AD6802EA05064F6817F4801F66
:1037800001D044EA0506564DAE60ED682A404E6809
:1037900016F4001F01D044EA0502514CE2600133E7
:1037A0000F2B00F2968001229A400C681440A2422E
:1037B000F5D14D68022D01D0122D10D1DE0808364A
:1037C00050F826C003F00705AF000F25BD402CEAD6
:1037D000050C0D69BD4045EA0C0540F82650066809
:1037E0005F000325BD40ED4305EA060C4E6806F078
:1037F0000306BE4046EA0C0606604E6806F1FF3C32
:10380000BCF1010F03D9112E01D0122E10D1866800
:1038100005EA060CCE68BE4046EA0C06866046689D
:1038200026EA02024E68C6F300169E401643466022
:10383000C26815408A68BA402A43C2604A6812F0DA
:10384000805FACD000220192264A556C45F4804539
:103850005564526C02F480420192019A9D08AE1C9C
:103860001E4A52F8267003F0030296000F22B2405F
:1038700027EA02071C4A90423FF45DAF02F58062DE
:1038800090421AD002F58062904218D002F5806210
:10389000904216D002F58062904214D002F5806208
:1038A000904212D002F58062904210D002F5806200
:1038B00090423FF43EAF08223EE701223CE702225D
:1038C0003AE7032238E7042236E7052234E70622E6
:1038D00032E702B0F0BC7047704700BF00380140CB
:1038E000003C014000380240000002400AB1816102
:1038F0007047090481617047436931EA030301D0CD
:103900008161704709048161704730B405682C6893
:1039100024F480242C60046863608368402B05D005
:10392000036899600368DA6030BC704703689A6086
:103930000368D960F8E7000010B40368D9B2103901
:103940000C4AA2FB014212090B4CA25CC2655F2922
:1039500009D923F47F7323F0030304338365806D57
:103960005DF8044B704723F47F7323F003038365F2
:10397000F5E700BFABAAAAAAA8550008836A826926
:1039800092B9012B0AD01BB1022B01D00020704745
:10399000C36A13F0807F28D100207047C36AB3F157
:1039A000C07F24D000207047B2F5005F09D0022B01
:1039B00025D9032B25D1C36A13F0807F23D10020A2
:1039C0007047032B03D8DFE803F01404140A002027
:1039D0007047C36A13F0807F0DD100207047C36A1F
:1039E000B3F1C07F09D0002070470120704701204B
:1039F0007047012070470120704701207047012067
:103A000070470020704701207047000070B50446E1
:103A100000F040FA002C5BD00546002384F83430D7
:103A2000022384F835302268136823F00103136001
:103A300023681A6812F0010F0AD000F02BFA401B1D
:103A40000528F5D920236365032084F8350070BD6F
:103A50001A68204810406168A2680A43E1680A4376
:103A600021690A4361690A43A1690A43E1690A437A
:103A7000216A0A430243616A04291ED01A6026683B
:103A8000756925F00705636A1D43042B07D1A36AF6
:103A90001D43E36A1BB12046FFF770FF90B97561C3
:103AA0002046FFF749FFE26D3F23934083600020EB
:103AB0006065012384F83530C9E7E16A206B014372
:103AC0000A43DBE740236365012084F83500BEE745
:103AD0000120BCE73F8010F038B5856D90F8344088
:103AE000012C31D0012480F8344090F83540E4B204
:103AF000012C04D0002380F83430022038BD044665
:103B0000022084F83500002060652046FFF7FDFEA6
:103B1000E26D3F239340AB602268136843F01603C5
:103B200013602268536943F080035361236C23B10F
:103B30002268136843F0080313602268136843F097
:103B4000010313600020D9E70220D7E7F0B583B066
:103B5000044600230193724B1D68724BA3FB05358D
:103B6000AD0A876D3E68C26D08239340334210D082
:103B700003681A6812F0040F0BD01A6822F00402CE
:103B80001A60C26D08239340BB60436D43F001038C
:103B90004365E26D01239340334209D022685269A4
:103BA00012F0800F04D0BB60636D43F002036365C5
:103BB000E26D04239340334209D02268126812F068
:103BC000020F04D0BB60636D43F004036365E26DD4
:103BD00010239340334224D02268126812F0080F59
:103BE0001FD0BB6023681A6812F4802F0DD01B68A9
:103BF00013F4002F04D1236C9BB12046984710E0AA
:103C0000A36C73B1204698470BE01A6812F4807FCA
:103C100003D11A6822F008021A60236C0BB1204607
:103C20009847E26D20239340334255D022681268B2
:103C300012F0100F50D0BB6094F83530DBB2052B7A
:103C40000ED023681A6812F4802F33D01B6813F447
:103C5000002F2AD1636C002B3ED0204698473BE0D2
:103C60002268136823F0160313602268536923F057
:103C700080035361236CA3B12268136823F0080307
:103C80001360E26D3F239340BB60002384F834301F
:103C9000012384F83530236D002B3FD02046984710
:103CA0003CE0A36C002BE7D1EBE7E36BA3B120462C
:103CB000984711E01A6812F4807F09D11A6822F03F
:103CC00010021A60002384F83430012384F8353060
:103CD000E36B0BB120469847636DFBB1636D13F046
:103CE000010F17D0052384F835302268136823F0BC
:103CF00001031360019B01330193AB4204D8236895
:103D00001B6813F0010FF5D1002384F83430012330
:103D100084F83530E36C0BB12046984703B0F0BD12
:103D200068000020B5814E1B074AD36823F4E06386
:103D30001B041B0C000200F4E060184340F0BF605D
:103D400040F40030D060704700ED00E030B4174B15
:103D5000DB68C3F30223C3F10704042C28BF042447
:103D60001D1D062D01D9033B00E000234FF0FF3558
:103D700005FA04F421EA0401994005FA03F322EA62
:103D800003031943002809DB0901C9B200F16040AF
:103D900000F5614080F8001330BC704700F00F0060
:103DA0000901C9B2024B1954F6E700BF00ED00E06B
:103DB00014ED00E0002807DB00F01F02400901239A
:103DC0009340024A42F82030704700BF00E100E013
:103DD0000138B0F1807F0AD2064B5860064AF021C4
:103DE00082F823100020986007221A607047012093
:103DF000704700BF10E000E000ED00E010B50446A1
:103E00000E4B18784FF47A73B3FBF0F30C4A10683A
:103E1000B0FBF3F0FFF7DCFF68B90F2C01D90120EC
:103E20000AE0002221464FF0FF30FFF78FFF054BDD
:103E30001C60002000E0012010BD00BF60000020D9
:103E4000680000206400002008B50B4B1A6842F49B
:103E500000721A601A6842F480621A601A6842F4AA
:103E600080721A600320FFF75FFF0020FFF7C6FF94
:103E7000FDF718F8002008BD003C0240034A116815
:103E8000034B1B780B441360704700BFD41B00200A
:103E900060000020014B1868704700BFD41B002051
:103EA00038B50446FFF7F6FF0546B4F1FF3F02D0F0
:103EB000044B1B781C44FFF7EDFF401BA042FAD3D4
:103EC00038BD00BF600000200F49D1F8883043F4AE
:103ED0007003C1F888300D4B1A6842F001021A6075
:103EE000002098601A6822F0847222F480321A60EE
:103EF000074A5A601A6822F480221A60D8604FF08C
:103F000000638B60704700BF00ED00E000380240A6
:103F10001030002498B108B50346D0F88C0210B1D7
:103F20000020C3F88C0209B1C3F888121846012397
:103F300080F874320270FCF727FE002008BD0220D2
:103F4000704719B1C0F88C120020704702207047EA
:103F500008B5FCF776FE002008BD08B5D0F88C3215
:103F600033B11B68984708B9002008BD0220FCE760
:103F70000220FAE708B5D0F88C325B689847002039
:103F800008BD38B5044600F52075284600F047F90D
:103F90000123C4F86C32B4F88632C4F8703294F855
:103FA000801201F01F03012B0FD05AB23AB1022B3D
:103FB00010D001F080012046FCF75EFE03E02946A8
:103FC000204600F0B7FA002038BD2946204600F010
:103FD000E5FAF8E72946204600F010FBF3E738B58C
:103FE0000446A9BB1046D4F86C32032B03D0052B32
:103FF00025D0002038E0D4F84C31D4F85021934239
:104000000DD99B1AC4F84C319A4206D99AB201468E
:10401000204600F038FC002026E092B2F7E7D4F802
:104020008C321B691BB194F87422032A04D02046F9
:1040300000F031FC002017E020469847F7E7002504
:10404000C4F86C5229462046FCF716FE28460BE0C1
:104050000A46D0F88C329B693BB190F87412032960
:1040600005D111469847002038BD0220FCE7022008
:10407000FAE710B50446002954D11046D4F86C3242
:10408000022B0CD0042B00D01BB980212046FCF75A
:10409000F3FD94F87832012B40D0002010BD236A44
:1040A000626A93421BD8E169B1FBF2F302FB13137E
:1040B0002BB98A4203D8D4F8703299421DD3D4F870
:1040C0008C32DB681BB194F87422032A23D0802140
:1040D0002046FCF7D1FD204600F0E8FBD9E79A1A0C
:1040E000226292B20146204600F0B6FB00231A4637
:1040F00019462046FCF7E0FDCBE70022114620469A
:1041000000F0AAFB0021C4F870120B460A462046B4
:10411000FCF7D2FDBDE720469847D8E7002084F899
:104120007802BBE70A46D0F88C325B693BB190F865
:104130007412032905D1114698470020AEE70220EA
:10414000ACE70220AAE770B50446402300221146DE
:10415000FCF77FFD0125C4F844514026C4F85061A6
:104160003346002280212046FCF773FDA56166627C
:1041700084F874520023C4F86C326360C4F87C3253
:10418000D4F890322BB1D4F88C325B6800212046F1
:104190009847002070BD01740020704790F8743279
:1041A00080F87532042380F874320020704790F84C
:1041B000753280F874320020704708B590F8743278
:1041C000032B01D0002008BDD0F88C32DB69002B16
:1041D000F8D09847F6E7002070470020704700208D
:1041E000704708B5012280F87422D0F88C225268FA
:1041F00001799047002008BD002302781AB10133ED
:10420000DBB20130F9E71846704708B54B88012B3F
:1042100000D008BDC0F87C3200F03DFBF9E70B7818
:1042200003704B7843708B78CA7803EB022343808A
:104230000B794A7903EB022383808B79CA7903EBEC
:104240000223C380704710B504468021FCF714FD9B
:1042500000212046FCF710FD10BD30B583B00546A7
:104260000C464A88130A013B062B00F28480DFE8E3
:1042700003F004162A8282667300D0F888321B6825
:104280000DF10601007C9847BDF8062012B1E388C5
:10429000002B74D1E388002B7BD003B030BD037CAE
:1042A00043B9D0F88C329B6A0DF10600984702237F
:1042B0004370E9E7D0F88C32DB6A0DF106009847CD
:1042C00002234370E0E7D2B2052A34D8DFE802F0D7
:1042D000030B131B232BD0F888325B680DF106010A
:1042E000007C9847D0E7D0F888329B680DF1060132
:1042F000007C9847C8E7D0F88832DB680DF10601EA
:10430000007C9847C0E7D0F888321B690DF10601A0
:10431000007C9847B8E7D0F888325B690DF1060158
:10432000007C9847B0E7D0F888329B690DF1060110
:10433000007C9847A8E72146FFF785FFADE7037C9F
:1043400033B9D0F88C325B6B0DF1060098479BE7D0
:104350002146FFF778FFA0E7037C43B9D0F88C3201
:104360001B6B0DF106009847072343708CE721462D
:10437000FFF769FF91E72146FFF765FF8DE79A4256
:1043800028BF1A46ADF806200146284600F057FA25
:1043900080E7284600F07FFA7FE738B504468B882F
:1043A000F3B9CB88E3B94B887F2B19D803F07F058D
:1043B00090F87432032B0CD080F876522946FCF723
:1043C0006BFC204600F067FA35B1022384F87432A2
:1043D00009E0FFF738FF06E0012384F8743202E0B9
:1043E0002046FFF730FF38BD38B504460D468978C2
:1043F000284B197001290ED890F87432022B0ED078
:10440000032B21D02946FFF71EFF224B19782046A7
:10441000FFF7B0FD02E02946FFF715FF38BD81B177
:104420004160032380F87432FFF797FD022803D020
:10443000204600F030FAF1E729462046FFF703FF57
:10444000ECE700F028FAE9E789B1436899421DD00A
:10445000D9B2FFF78FFD0F4B197861602046FFF747
:104460007CFD02280DD0204600F015FAD6E7022385
:1044700080F874324160FFF77DFD204600F00BFAB2
:10448000CCE729462046FFF7DEFEC7E700F003FA37
:10449000C4E700BFFE01002008B5CB88012B0CD17A
:1044A00090F874325AB29AB1022B09D9032B0FD16A
:1044B0000122011D00F0C3F901E0FFF7C4FE08BDB1
:1044C0000146002341F8083F012200F0B8F9F6E761
:1044D000FFF7B9FEF3E708B590F87432013B022B01
:1044E00012D8CB88022B0CD10123C360D0F87C32C8
:1044F0000BB10323C360022200F10C0100F09FF90D
:1045000008BDFFF7A0FEFBE7FFF79DFEF8E708B543
:1045100090F87432013B022B09D84B88012B00D054
:1045200008BD0023C0F87C3200F0B5F9F8E7FFF7CA
:104530008AFEF5E708B50B7803F06003202B05D061
:10454000402B03D043B1FFF77EFE03E0D0F88C325E
:104550009B689847002008BD4B78092B1BD8DFE8E3
:1045600003F011171A141A08051A0E0BFFF775FE3F
:10457000F0E7FFF712FFEDE7FFF736FFEAE7FFF797
:104580008BFFE7E7FFF7A7FFE4E7FFF73EFEE1E772
:10459000FFF7BDFFDEE7FFF756FEDBE738B5054660
:1045A0000C460B7803F06003202B06D0402B04D080
:1045B0001BB1FFF748FE002038BD95F87432013B6F
:1045C000022B16D82379012B0ED8D5F88C329B6894
:1045D000214628469847E388002BECD10028EAD1F1
:1045E000284600F058F9E6E721462846FFF72BFE5B
:1045F000E1E721462846FFF726FEDCE738B504460A
:104600008A880B7803F06003202B08D0D0B2402BAF
:1046100005D05BB12046FFF716FE002005E0D4F878
:104620008C329B6820469847002038BD202B13D041
:104630004B78012B39D05DB2002D64D0032B40F0B4
:10464000DC8094F87432022B0CD0032B1CD0204653
:10465000FFF7F9FD0020E8E7D4F88C329B6820468C
:104660009847E2E708B1802804D12046FFF7EBFD28
:104670000020DAE701462046FCF7FEFA80212046BA
:10468000FCF7FAFA0020D0E74B8823B918B180284C
:1046900001D0CB8823B1204600F0FDF80020C4E70C
:1046A00001462046FCF7E8FAF5E794F87432022B4D
:1046B00006D0032B16D02046FFF7C5FD0020B4E737
:1046C00008B1802804D12046FFF7BDFD0020ACE7EB
:1046D00001462046FCF7D0FA80212046FCF7CCFAB0
:1046E0000020A2E74B88002B40F08C8010F07F0F59
:1046F00004D1204600F0CFF8002096E7014620467E
:10470000FCF7C2FAF5E794F87432022B06D0032BBB
:1047100029D02046FFF797FD002086E708B18028C2
:1047200012D112F0800F14D100F07F0000EB800056
:10473000830003F5A073E11800250D6002222046D6
:1047400000F07DF8284670E72046FFF77CFD00204A
:104750006BE700F07F0000EB8000830003F11001A5
:1047600021440431E8E752B2002A1EDB00F00F03B7
:1047700003EB83039D002544D5F844311BB3002A85
:1047800026DB00F07F0202EB8202930003F5A073A8
:10479000E51808B1802825D100232B600222294684
:1047A000204600F04CF800203FE700F00F0303EB39
:1047B00083039D002544AB69002BE0D12046FFF721
:1047C00042FD002031E72046FFF73DFD00202CE7A9
:1047D00000F07F0202EB8202930003F110052544F2
:1047E0000435D6E701462046FCF702FA10B1012352
:1047F0002B60D3E700232B60D0E72046FFF723FD93
:10480000002012E7002010E7C0B170B50D46164633
:104810000446FFF7F1FC013040003080287003238C
:104820006B700223217841B101345A1CD2B2E95491
:104830000233DBB20021A954F4E770BD704710B514
:1048400013460222C0F86C22C36103620A460021AB
:10485000FCF72AFA002010BD08B513460A460021CD
:10486000FCF722FA002008BD10B513460322C0F859
:104870006C22C0F84831C0F84C310A460021FCF7E0
:104880001BFA002010BD08B513460A460021FCF7AC
:1048900013FA002008BD08B50423C0F86C320023C9
:1048A0001A461946FCF700FA002008BD08B5052392
:1048B000C0F86C3200231A461946FCF7FDF90020B7
:1048C00008BD10B5D0F89042D0F894325BB194F89E
:1048D0000002FF2807D09B6894F8012221469847E0
:1048E000FF2384F80032002010BD00004323038022
:1048F00000487047A400002043230380004870470D
:10490000E80000204323038000487047380100205E
:104910000A230380004870472C01002038B5044664
:10492000D0F89052FCF77BF9C5F80C02D4F890321D
:104930004BB1D4F89432DB6805F50371D5F8040265
:104940009847002038BD0220FCE770B5D0F89022CF
:10495000D0F89852F2B101EB8104A3000344DB6963
:104960004BB1C1EBC106B40025446D6CB3FBF5F44B
:1049700005FB143323B10023C2F81432002070BDAC
:1049800001EB8102930003440022DA611346FCF735
:104990008BF9F3E70220F2E770B582B005460C46CA
:1049A000D0F8906200238DF80730ADF804300B7812
:1049B00013F0600227D0202A56D1CA88DAB113F04A
:1049C000800F0CD0D0F894329B68314660789847BD
:1049D000E28831462846FFF732FF002047E04B7857
:1049E00086F800328B7986F80132CA883146FFF7A3
:1049F0003BFF00203BE0D0F894329B6800224878CF
:104A00009847002033E04B780A2B14D00B2B21D091
:104A10001BB1FFF718FC022029E090F87432032B39
:104A200003D0FFF710FC022021E0022201A9FFF7CA
:104A300006FF00201BE090F87432032B03D0FFF731
:104A400002FC022013E001220DF10701FFF7F7FE3F
:104A500000200CE090F87432032B01D1002006E016
:104A6000FFF7F1FB022002E0FFF7EDFB022002B0AE
:104A700070BD38B504468121FCF7F6F80025E562E3
:104A800001212046FCF7F0F8C4F858518221204655
:104A9000FCF7EAF82564D4F890324BB1D4F894329C
:104AA0005B689847D4F8900200F0F6F8C4F890528A
:104AB000002038BD38B50446037CABBB4FF400730F
:104AC00002228121FCF7C5F80125E5624FF400734D
:104AD000022229462046FCF7BCF8C4F858510823A6
:104AE000032282212046FCF7B4F8012323644FF40B
:104AF000077000F0C9F80546C4F8900268B3D4F80E
:104B000094321B6898470023C5F81432C5F8183250
:104B1000237CCBB94FF40073D5F804220121204641
:104B2000FCF7CAF8002038BD402302228121FCF79F
:104B300090F80125E5624023022229462046FCF731
:104B400088F8C4F85851CAE74023D5F80422012157
:104B50002046FCF7B1F80020E5E70120E3E719B1B2
:104B6000C0F894120020704702207047D0F89032AD
:104B7000C3F80812C3F8102200207047D0F8903212
:104B8000C3F8041200207047D0F89022A2B108B5F3
:104B9000D2F814320BB1012008BD0123C2F814323F
:104BA000D2F810320363B2F81032D2F80822812111
:104BB000FCF77AF80020EFE702207047D0F8902247
:104BC00092B108B5037C43B94FF40073D2F80422C4
:104BD0000121FCF771F8002008BD4023D2F804221F
:104BE0000121FCF769F8F6E702207047DFF834D0BE
:104BF000002103E00C4B5B58435004310B480C4B35
:104C000042189A42F6D30B4A02E0002342F8043BD2
:104C1000094B9A42F9D3FFF757F900F011F8FBF767
:104C2000F5FC704700000220045700080000002037
:104C3000E0010020E0010020E81B0020FEE700006A
:104C400070B50D4D0D4C641BA4100026A64209D171
:104C50000B4D0C4C00F06CFC641BA4100026A6420B
:104C600005D170BD55F8043B98470136EEE755F87D
:104C7000043B98470136F2E7FC560008FC56000852
:104C8000FC56000800570008024B0146186800F067
:104C900061B800BF7C010020024B0146186800F09B
:104CA0000BB800BF7C01002002440346934200D1B0
:104CB000704703F8011BF9E738B50546002945D0D0
:104CC00051F8043C0C1F002BB8BFE41800F0E0F8CA
:104CD0001F4A1368104633B9636014602846BDE864
:104CE000384000F0DBB8A3420CD921686218934227
:104CF00004BF1A685B68636004BF521822600460D6
:104D0000ECE713465A680AB1A242FAD91968581852
:104D1000A0420BD120680144581882421960DDD1AD
:104D2000106852685A6001441960D7E702D90C2311
:104D30002B60D3E7206821188A4204BF11685268AB
:104D4000626004BF091821605C60C7E738BD00BF1E
:104D500000020020F8B5CD1C25F0030508350C2D08
:104D600038BF0C25002D064601DBA94203D90C23D0
:104D700033600020F8BD00F08BF821490A68144622
:104D80009CB9204F3B6823B92146304600F03CF8DF
:104D900038602946304600F037F8431C23D10C23F5
:104DA0003360304600F07AF8E3E723685B1B17D4E2
:104DB0000B2B03D923601C44256004E06368A242E6
:104DC0000CBF0B605360304600F068F804F10B0034
:104DD000231D20F00700C21ACCD01B1AA350C9E72C
:104DE00022466468CCE7C41C24F00304A042E3D04C
:104DF000211A304600F008F80130DDD1CFE700BFBE
:104E0000000200200402002038B5064C00230546AD
:104E10000846236000F07EFB431C02D1236803B1E7
:104E20002B6038BDD81B00200EB400B59CB01DAB64
:104E3000029006906FF000410948079104910949DA
:104E400053F8042B05910068019302A900F088F83B
:104E5000029B00221A701CB05DF804EB03B070478F
:104E60007C0100200802FFFF10B50139034632B172
:104E700011F8014F03F8014B013A002CF7D11A4405
:104E80000021934200D110BD03F8011BF9E7000097
:104E9000014800F0E7BA00BFE01B0020014800F025
:104EA000E2BA00BFE01B00202DE9F0478E689E4269
:104EB00082460C469146984638D8B1F80CC01CF48E
:104EC000906F31D062692568096902EB42026F1A5E
:104ED00002EBD272013355103B449D4238BF1D4650
:104EE0001CF4806F30D02946FFF734FF064650B9D6
:104EF0000C23CAF80030A38943F04003A3814FF08C
:104F0000FF30BDE8F0873A46216900F0ADFAA38989
:104F100023F4906343F08003A381266165613E44DE
:104F2000ED1B2660A5604646464500D946463246FA
:104F30004946206800F0A6FAA3689B1BA36023687B
:104F40001E4426600020DCE72A4600F0B5FA06463B
:104F50000028E2D121695046FFF7AEFEC8E7000005
:104F60002DE9F04F1E468B891B069DB007460D4666
:104F700014460ED50B6963B94021FFF7EBFE28609C
:104F8000286120B90C233B604FF0FF30C9E040237B
:104F90006B610023099320238DF82930DFF89C9161
:104FA000039630238DF82A304FF0010A23461E461F
:104FB00013F8012B0AB1252AF9D1B6EB040B0BD05B
:104FC0005B46224629463846FFF76EFF013000F067
:104FD000A380099B5B4409933378002B00F09C80ED
:104FE00000234FF0FF32CDE90523013604930793E8
:104FF0008DF853301A933446052214F8011B4F489C
:10500000FBF7EEF8049BC0B9D90644BF20228DF807
:1050100053201A0744BF2B228DF8532032782A2AB6
:1050200013D0079A344600200A26214611F8013B86
:10503000303B092B4BD970B914E0A0EB09000AFAF8
:1050400000F0184304902646D5E7039A111D126814
:105050000391002A01DB079204E0524243F002036D
:105060000792049323782E2B0CD163782A2B33D10B
:10507000039B1A1D1B680392002BB8BF4FF0FF3330
:10508000023405932E4E217803223046FBF7A8F810
:1050900038B14023801B03FA00F0049B0343013422
:1050A000049314F8011B27488DF828100622FBF7FB
:1050B00097F8002838D0244B13BB039B073323F009
:1050C000070308330393099B434409936EE706FBE8
:1050D000023201200C46A8E700230134059319464B
:1050E0000A26204610F8012B303A092A03D9002B52
:1050F000C8D00591C6E706FB012101230446F0E76D
:1051000003AB00932A46114B04A93846AFF3008045
:10511000B0F1FF3F8046D6D1AB895B063FF534AF97
:1051200009981DB0BDE8F08F03AB00932A46074BEA
:1051300004A9384600F082F8EAE700BFC15600082B
:10514000C7560008CB56000800000000A94E000812
:105150002DE9F04791461F468A680B69DDF82080EB
:105160009342B8BF1346C9F8003091F84320064671
:105170000C4612B10133C9F800302368990642BFCA
:10518000D9F800300233C9F80030256815F006055B
:1051900007D104F1190AE368D9F800209B1AAB4241
:1051A00028DC94F843302268003318BF01239206AC
:1051B0002DD404F1430239463046C047013020D097
:1051C0002368E568D9F8002003F00603042B08BF24
:1051D000AD1AA36822690CBF25EAE5750025934244
:1051E000C4BF9B1AED184FF000091A344D451AD16F
:1051F000002008E00123524639463046C0470130BE
:1052000003D14FF0FF30BDE8F0870135C3E7E11867
:105210005A1C302081F84300224494F8451082F84B
:1052200043100233C5E70123224639463046C047C2
:105230000130E6D009F10109D8E700002DE9F0437B
:1052400006460C4601F14300097E85B06E2998465A
:1052500017460C9B00F0BA8024D8632939D00AD8AD
:10526000002900F0C380582900F0918004F1420524
:1052700084F8421035E0642901D06929F6D1256807
:105280001A6815F0800F02F104012CD01268196021
:10529000002A03DA2D23524284F84330DFF8BCC1E0
:1052A0000A233FE0732900F0A58008D86F2921D098
:1052B0007029DBD1226842F02002226003E07529C8
:1052C00018D07829D2D1782284F84520DFF890C10F
:1052D00061E01A68111D1960136884F8423004F106
:1052E0004205012393E01268196015F0400F18BFC2
:1052F00012B2CDE7D4F800C01A681CF0800F02F19A
:1053000004051D6001D0126803E01CF0400FFAD0C4
:105310001288DFF848C16F290CBF08230A23002137
:1053200084F843106568A560002DA2BF216821F0B4
:10533000040121600AB9002D46D00546B2FBF3F105
:1053400003FB112E93421CF80EE005F801ED39D94C
:10535000082B0BD12368DA0708D5236962689A42C3
:10536000DEBF302305F8013C05F1FF35401B20610D
:10537000CDF800803B4603AA21463046FFF7E8FE01
:10538000013049D14FF0FF3005B0BDE8F083DFF8C0
:10539000CCC084F845101D68216855F8042B1D60A9
:1053A0000D060BD5CD0744BF41F0200121601AB98D
:1053B000236823F0200323601023B0E74B0648BF87
:1053C00092B2EFE70A46B9E70546C1E71A68D4F892
:1053D00000C06169151D1D601CF0800F136801D0AD
:1053E000196003E01CF0400FFAD0198000232361FC
:1053F0000546BDE71A68111D19601568626800212D
:105400002846FAF7EDFE08B1401B6060636823612F
:10541000002384F84330ABE723692A4639463046F7
:10542000C0470130AED023689B0713D4E068039BCC
:105430009842B8BF1846A7E701234A463946304686
:10544000C04701309ED00135E368039A9B1AAB42F6
:10545000F2DCEBE7002504F11909F5E7D256000864
:10546000E3560008704770470A44914200F1FF3349
:1054700000D1704710B511F8014B03F8014F91426C
:10548000F9D110BD884210B501EB020302D9834265
:105490001C4607D8421E994208D011F8014B02F869
:1054A000014FF8E783189A1A9A4200D110BD14F8F8
:1054B000011D03F8011DF7E7F8B5074614460E462F
:1054C00021B91146BDE8F840FFF744BC22B9FFF707
:1054D000F3FB25462846F8BD00F014F8A0420FD291
:1054E00021463846FFF736FC05460028F2D0314603
:1054F0002246FFF7B9FF31463846FFF7DDFBE9E703
:105500003546E7E751F8043C181F002BBCBF0B5889
:10551000C0187047044A05491368002B08BF0B46A2
:10552000184410601846704708020020E81B00204D
:10553000F8B500BFF8BC08BC9E467047F8B500BF80
:08554000F8BC08BC9E46704750
:1055480053657474696E672050504D203A20256465
:105558006D730D0A0000000043444320436F6E66DC
:105568006967000043444320496E7465726661634D
:105578006500000053544D6963726F656C65637410
:10558800726F6E696373000053544D33322056694D
:10559800727475616C20436F6D506F7274000000F7
:1055A800000610160006101600000000000000009B
:1055B80001020304060708090020202020202020DB
:1055C80020202828282828202020202020202020AB
:1055D80020202020202020202088101010101010BB
:1055E8001010101010101010100404040404040407
:1055F80004040410101010101010414141414141A1
:105608000101010101010101010101010101010182
:105618000101010110101010101042424242424292
:105628000202020202020202020202020202020252
:1056380002020202101010102000000000000000FA
:105648000000000000000000000000000000000052
:105658000000000000000000000000000000000042
:105668000000000000000000000000000000000032
:105678000000000000000000000000000000000022
:105688000000000000000000000000000000000012
:105698000000000000000000000000000000000002
:1056A80000000000000000000000000000000000F2
:1056B800000000000000000000232D302B200068AF
:1056C8006C4C0065666745464700303132333435E7
:1056D8003637383941424344454600303132333455
:0C56E8003536373839616263646566004E
:0856F400BCABFF7F01000000C8
:0456FC00B5010008EC
:04570000910100080B
:10570400C90C0008D50C0008850D0008610D0008BF
:105714004D0D0008A10D0008C50D0008120100027E
:10572400020200408304405700020102030100000A
:10573400040309041A030000000000000000000034
:105744000000000000000000000000000000000055
:10575400F10D0008E90D0008ED0D0008450E0008E4
:1057640001000000100000000024F400B54A000805
:10577400734A00089949000800000000C348000863
:105784004B4900081D49000800000000000000000B
:1057940000000000F9480008ED4800080549000829
:1057A4001149000809024300020100C03209040043
:1057B400000102020100052400100105240100017A
:1057C40004240202052406000107058203080010D0
:1057D40009040100020A000000070501024000005C
:1057E400070581024000000009024300020100C0D5
:1057F4003209040000010202010005240010010521
:105804002401000104240202052406000107058284
:105814000308001009040100020A00000007050142
:105824000200020007058102000200000A060002CD
:10583400000000400100000009074300020104C009
:1058440032090400000102020100052400100105D0
:105854002401000104240202052406000107058234
:105864000308001009040100020A000000070501F2
:105874000240000007058102400000008001002072
:105884000000000000000000000000000000000014
:105894000000000000000000000000000000000004
:1058A40000000000000000000000000000000000F4
:1058B40000000000000000000000000000000000E4
:1058C40000000000000000000000000000000000D4
:1058D40000000000000000000000000000000000C4
:0400000508004BEDB7
:00000001FF
